{
  "contractName": "Fake_news",
  "abi": [
    {
      "constant": true,
      "inputs": [],
      "name": "news_count",
      "outputs": [
        {
          "name": "",
          "type": "uint256"
        }
      ],
      "payable": false,
      "stateMutability": "view",
      "type": "function",
      "signature": "0x58838f64"
    },
    {
      "constant": true,
      "inputs": [
        {
          "name": "",
          "type": "uint256"
        }
      ],
      "name": "detect_fake",
      "outputs": [
        {
          "name": "id",
          "type": "uint256"
        },
        {
          "name": "data",
          "type": "string"
        },
        {
          "name": "completed",
          "type": "bool"
        }
      ],
      "payable": false,
      "stateMutability": "view",
      "type": "function",
      "signature": "0xdb5261b1"
    },
    {
      "inputs": [],
      "payable": false,
      "stateMutability": "nonpayable",
      "type": "constructor",
      "signature": "constructor"
    },
    {
      "anonymous": false,
      "inputs": [
        {
          "indexed": false,
          "name": "id",
          "type": "uint256"
        },
        {
          "indexed": false,
          "name": "content",
          "type": "string"
        },
        {
          "indexed": false,
          "name": "completed",
          "type": "bool"
        }
      ],
      "name": "NewsCreated",
      "type": "event",
      "signature": "0x65d465ccac82ef0d05df17739a7ef6eaf6098645d61654b09bfd2b6a3bc072e4"
    },
    {
      "anonymous": false,
      "inputs": [
        {
          "indexed": false,
          "name": "id",
          "type": "uint256"
        },
        {
          "indexed": false,
          "name": "completed",
          "type": "bool"
        }
      ],
      "name": "NewsCompleted",
      "type": "event",
      "signature": "0x45c28478fc70d2ec7b9467b77576eddf04fcd4f93b8ada9870a868e3dc7dcb71"
    },
    {
      "constant": false,
      "inputs": [
        {
          "name": "_data",
          "type": "string"
        }
      ],
      "name": "createNews",
      "outputs": [],
      "payable": false,
      "stateMutability": "nonpayable",
      "type": "function",
      "signature": "0xe03e864f"
    },
    {
      "constant": false,
      "inputs": [
        {
          "name": "_id",
          "type": "uint256"
        }
      ],
      "name": "toggleCompleted",
      "outputs": [],
      "payable": false,
      "stateMutability": "nonpayable",
      "type": "function",
      "signature": "0x455f5024"
    }
  ],
  "bytecode": "0x60806040526000805534801561001457600080fd5b50610089606060405190810160405280602481526020017f43727970746f43757272656e63696573206172652062616e6e656420696e204981526020017f6e6469610000000000000000000000000000000000000000000000000000000081525061008e640100000000026401000000009004565b61024d565b60008054600190810180835560408051606081018252828152602080820187815282840187905293865284815291909420845181559151805192936100db939085019291909101906101b2565b5060408201518160020160006101000a81548160ff0219169083151502179055509050507f65d465ccac82ef0d05df17739a7ef6eaf6098645d61654b09bfd2b6a3bc072e4600054826000604051808481526020018060200183151515158152602001828103825284818151815260200191508051906020019080838360005b8381101561017357818101518382015260200161015b565b50505050905090810190601f1680156101a05780820380516001836020036101000a031916815260200191505b5094505050505060405180910390a150565b828054600181600116156101000203166002900490600052602060002090601f016020900481019282601f106101f357805160ff1916838001178555610220565b82800160010185558215610220579182015b82811115610220578251825591602001919060010190610205565b5061022c929150610230565b5090565b61024a91905b8082111561022c5760008155600101610236565b90565b6106448061025c6000396000f3fe6080604052600436106100615763ffffffff7c0100000000000000000000000000000000000000000000000000000000600035041663455f5024811461006657806358838f6414610092578063db5261b1146100b9578063e03e864f1461016d575b600080fd5b34801561007257600080fd5b506100906004803603602081101561008957600080fd5b5035610220565b005b34801561009e57600080fd5b506100a7610380565b60408051918252519081900360200190f35b3480156100c557600080fd5b506100e3600480360360208110156100dc57600080fd5b5035610386565b604051808481526020018060200183151515158152602001828103825284818151815260200191508051906020019080838360005b83811015610130578181015183820152602001610118565b50505050905090810190601f16801561015d5780820380516001836020036101000a031916815260200191505b5094505050505060405180910390f35b34801561017957600080fd5b506100906004803603602081101561019057600080fd5b8101906020810181356401000000008111156101ab57600080fd5b8201836020820111156101bd57600080fd5b803590602001918460018302840111640100000000831117156101df57600080fd5b91908080601f016020809104026020016040519081016040528093929190818152602001838380828437600092019190915250929550610435945050505050565b610228610559565b60008281526001602081815260409283902083516060810185528154815281840180548651600296821615610100026000190190911695909504601f810185900485028601850190965285855290949193858401939092908301828280156102d15780601f106102a6576101008083540402835291602001916102d1565b820191906000526020600020905b8154815290600101906020018083116102b457829003601f168201915b50505091835250506002919091015460ff161515602091820152604080830180511590526000858152600180845291902083518155838301518051949550859491936103229385019291019061057d565b50604091820151600291909101805460ff1916911515919091179055818101518151848152901515602082015281517f45c28478fc70d2ec7b9467b77576eddf04fcd4f93b8ada9870a868e3dc7dcb71929181900390910190a15050565b60005481565b600160208181526000928352604092839020805481840180548651600296821615610100026000190190911695909504601f810185900485028601850190965285855290949193929091908301828280156104225780601f106103f757610100808354040283529160200191610422565b820191906000526020600020905b81548152906001019060200180831161040557829003601f168201915b5050506002909301549192505060ff1683565b60008054600190810180835560408051606081018252828152602080820187815282840187905293865284815291909420845181559151805192936104829390850192919091019061057d565b5060408201518160020160006101000a81548160ff0219169083151502179055509050507f65d465ccac82ef0d05df17739a7ef6eaf6098645d61654b09bfd2b6a3bc072e4600054826000604051808481526020018060200183151515158152602001828103825284818151815260200191508051906020019080838360005b8381101561051a578181015183820152602001610502565b50505050905090810190601f1680156105475780820380516001836020036101000a031916815260200191505b5094505050505060405180910390a150565b60606040519081016040528060008152602001606081526020016000151581525090565b828054600181600116156101000203166002900490600052602060002090601f016020900481019282601f106105be57805160ff19168380011785556105eb565b828001600101855582156105eb579182015b828111156105eb5782518255916020019190600101906105d0565b506105f79291506105fb565b5090565b61061591905b808211156105f75760008155600101610601565b9056fea165627a7a723058200d75dd81b477ec922516372dc146bc9a784d442fe802f6fdb42a9785e37cf13f0029",
  "source": "pragma solidity ^0.5.0;\r\n\r\ncontract Fake_news{\r\n    uint public news_count = 0;\r\n    struct News{\r\n        uint id;\r\n        string data;\r\n        bool completed;\r\n    }\r\n    mapping (uint => News) public detect_fake;\r\n\r\n    event NewsCreated(\r\n        uint id,\r\n        string content,\r\n        bool completed\r\n    );\r\n\r\n    event NewsCompleted(\r\n    uint id,\r\n    bool completed\r\n  );\r\n    constructor() public{\r\n        createNews(\"CryptoCurrencies are banned in India\");\r\n    }\r\n    function createNews(string memory _data) public{\r\n        news_count ++;\r\n        detect_fake[news_count] = News(news_count,_data,false);\r\n        emit NewsCreated(news_count, _data,false);\r\n    }\r\n    function toggleCompleted(uint _id) public {\r\n    News memory _news = detect_fake[_id];\r\n    _news.completed = !_news.completed;\r\n    detect_fake[_id] = _news;\r\n    emit NewsCompleted(_id, _news.completed);\r\n    }\r\n\r\n\r\n}",
  "sourcePath": "E:/General/Personal/Hackathon/ETHIndia 2.0/fake_news_detector/contracts/Fake_news.sol",
  "compiler": {
    "name": "solc",
    "version": "0.5.0+commit.1d4f565a.Emscripten.clang"
  },
  "schemaVersion": "3.0.1",
  "updatedAt": "2019-08-04T04:03:15.260Z",
  "devdoc": {
    "methods": {}
  },
  "userdoc": {
    "methods": {}
  }
}